:100000000C942A000C945D010C9490010C94B9019D
:100010000C9447000C9447000C9447000C94470044
:100020000C9447000C9447000C9447000C94470034
:100030000C9447000C9447000C9447000C94470024
:100040000C9447000C9447000C9447000C94470014
:100050000C94470011241FBECFE5D8E0DEBFCDBF12
:1000600010E0A0E6B0E0E4E6F9E002C005900D92F1
:10007000AA38B107D9F720E0AAE8B0E001C01D9284
:10008000A039B207E1F70E946C040C94B0040C9400
:10009000000080E00E940E0149E450E063E080E04F
:1000A0000E942E01789480916000815080936000BE
:1000B00080E00E94F40180E0909160008917D0F008
:1000C00080E00E94060281E00E94F40180E09091AD
:1000D00060008917D0F081E00E94060282E00E9451
:1000E000F40180E0909160008917D0F082E00E94D6
:1000F0000602DECF2FEF33EC99E0215030409040E4
:10010000E1F700C000008F5FD7CF2FEF33EC99E00D
:10011000215030409040E1F700C000008F5FD7CF02
:100120002FEF33EC99E0215030409040E1F700C0D0
:1001300000008F5FD7CF413091F018F0423029F1A5
:100140000895E82FF0E0EE0FFF1FEF58FF4F0190EA
:10015000F081E02D8081609568236083089590E0B0
:10016000880F991FFC01EF58FF4F0190F081E02D9F
:100170003081262F20952323208387599F4FDC0130
:10018000ED91FC918081682BE8CFE82FF0E0EE0F35
:10019000FF1FEF58FF4F0190F081E02DF3CF442374
:1001A00019F0413079F00895E82FF0E0EE0FFF1FCD
:1001B000E759FF4F0190F081E02D80816095682321
:1001C00060830895E82FF0E0EE0FFF1FE759FF4F1F
:1001D0000190F081E02D8081682BF2CFE82FF0E0D4
:1001E000EE0FFF1FE759FF4F0190F081E02D808156
:1001F000682760830895E82FF0E0EE0FFF1FEF59A6
:10020000FF4F0190F081E02D8081682319F4FA01FD
:100210001082089581E0FA0180830895813041F0D1
:1002200018F0823041F008958BB780648BBF089539
:100230008BB78068FBCF8BB78062F8CF813041F0FD
:1002400018F0823041F008958BB78F7B8BBF0895F3
:100250008BB78F77FBCF8BB78F7DF8CF813079F05D
:1002600018F08230D9F0089585B78C7F85BF85B7A7
:10027000682B65BF50938F0040938E00089585B71B
:10028000837F85BF85B794E0699FB0011124682BF7
:1002900065BF50938D0040938C000895633041F406
:1002A00084B7806484BF50938B0040938A00089584
:1002B0006230C9F784B78F7BF5CF1F920F920FB6CC
:1002C0000F9211242F933F934F935F936F937F93DC
:1002D0008F939F93AF93BF93EF93FF9380918E0083
:1002E00090918F00892B59F08FE39CE90197F1F7EA
:1002F00000C00000E0918E00F0918F000995FF9101
:10030000EF91BF91AF919F918F917F916F915F918D
:100310004F913F912F910F900FBE0F901F90189506
:100320001F920F920FB60F9211242F933F934F936A
:100330005F936F937F938F939F93AF93BF93EF934D
:10034000FF93E0918C00F0918D00309709F00995B2
:10035000FF91EF91BF91AF919F918F917F916F919D
:100360005F914F913F912F910F900FBE0F901F9073
:1003700018951F920F920FB60F9211242F933F934F
:100380004F935F936F937F938F939F93AF93BF939D
:10039000EF93FF93E0918A00F0918B00309709F082
:1003A0000995FF91EF91BF91AF919F918F917F91AF
:1003B0006F915F914F913F912F910F900FBE0F90D2
:1003C0001F901895813049F018F0823049F0089557
:1003D00042E064E082E00C949B0042E060E8FACFE7
:1003E00042E068E083E0F7CF813049F018F08230D6
:1003F00049F0089541E064E082E00C94CF0041E0D0
:1004000060E8FACF41E068E083E0F7CF813049F05F
:1004100018F0823049F0089540E064E082E00C94E6
:10042000CF0040E060E8FACF40E068E083E0F7CF3B
:10043000813041F018F0823039F0089564E082E0B4
:100440000C94EE0060E8FBCF68E083E0F9CF8130E8
:1004500049F018F0823051F0089540E061E081E009
:100460000C949B0040E060E483E0FACF40E064E05D
:10047000FBCFAB01813041F018F0823041F008959C
:1004800061E081E00C94FB0060E483E0FBCF64E07A
:10049000FCCFCF93C82F42E060E180E00E949B0038
:1004A00042E060E280E00E949B0042E060E480E085
:1004B0000E949B0042E060E880E00E949B00CC2309
:1004C00021F0C13041F0CF91089542E064E081E035
:1004D000CF910C949B0042E062E0F9CF882319F0A1
:1004E000813031F0089541E064E081E00C94CF0068
:1004F00041E062E0FACF882319F0813031F00895AD
:1005000040E064E081E00C94CF0040E062E0FACF8C
:10051000CF938A30F0F4C82F482F417060E180E01B
:100520000E94CF00C1FB442740F960E280E00E94B6
:10053000CF00C2FB442740F960E480E00E94CF0076
:100540004C2F46954695469560E880E0CF910C94F7
:10055000CF00CF910895CF93C82F40E062E081E0B3
:100560000E94CF0040E064E081E00E94CF00C4FB25
:10057000442740F960E180E00E94CF00C5FB44279A
:1005800040F960E280E00E94CF00C6FB442740F9BA
:1005900060E480E00E94CF004C2F441F4427441F9A
:1005A00060E880E00E94CF0040E068E081E00E94C7
:1005B000CF0087EC90E00197F1F700C0000041E028
:1005C00068E081E00E94CF004C2F417060E180E044
:1005D0000E94CF00C1FB442740F960E280E00E9406
:1005E000CF00C2FB442740F960E480E00E94CF00C6
:1005F000C3FB442740F960E880E00E94CF0040E060
:1006000068E081E00E94CF0087EC90E00197F1F76D
:1006100000C0000041E068E081E0CF910C94CF0081
:10062000CF93C82F41E062E081E00E94CF0040E01C
:1006300064E081E00E94CF00C4FB442740F960E100
:1006400080E00E94CF00C5FB442740F960E280E0D3
:100650000E94CF00C6FB442740F960E480E00E947E
:10066000CF004C2F441F4427441F60E880E00E94C5
:10067000CF0040E068E081E00E94CF0087EC90E08E
:100680000197F1F700C0000041E068E081E00E94BE
:10069000CF004C2F417060E180E00E94CF00C1FB91
:1006A000442740F960E280E00E94CF00C2FB44276B
:1006B00040F960E480E00E94CF00C3FB442740F98A
:1006C00060E880E00E94CF0040E068E081E00E94A6
:1006D000CF0087EC90E00197F1F700C0000041E007
:1006E00068E081E0CF910C94CF0042E06EE081E0C1
:1006F0000E949B0042E060EF80E00E949B0041E08E
:1007000068E081E00E94CF002FEF80E792E0215067
:1007100080409040E1F700C0000040E060E180E0F0
:100720000E94CF0041E060E280E00E94CF0040E004
:1007300060E480E00E94CF0040E060E880E00E943A
:10074000CF0040E068E081E00E94CF0087EC90E0BD
:100750000197F1F700C0000041E068E081E00E94ED
:10076000CF008CE20E94AB028FE99FE00197F1F786
:1007700000C000008FE00E94AB028FE99FE001976C
:10078000F1F700C0000081E00E94AB028FE39FE11F
:100790000197F1F700C0000086E00E94AB028FE9EC
:1007A0009FE00197F1F700C0000008950C9410033A
:1007B000CF93DF93EC018991811103C0DF91CF9139
:1007C00008950E941003F7CF6068862B0C94AB024B
:1007D00041E06FE083E00E949B0042E060EF83E035
:1007E0000E949B0041E060EF83E00C94CF006F9289
:1007F0007F928F929F92AF92BF92CF92DF92EF92B1
:10080000FF920F931F93CF93DF931F92CDB7DEB765
:100810006C01FC011082F12CE12C90E1692E712C0D
:1008200088248394912C53010E2C01C0AA0C0A94A5
:10083000EAF740E06A2D83E00E94CF0010E000E07C
:10084000AE014F5F5F4FB401002E01C0660F0A94E6
:10085000EAF783E00E94FB008981811136C0FFEF37
:1008600022E587E0F15020408040E1F700C0000021
:10087000F801EE0FFF1FEE0FFF1FE758FF4FEE0DC1
:10088000FF1D8081F601808341E06A2D83E00E9494
:10089000CF00F6018081811108C0FFEFEF1AFF0A37
:1008A00024E0E216F10409F0BECF0F90DF91CF9162
:1008B0001F910F91FF90EF90DF90CF90BF90AF907E
:1008C0009F908F907F906F9008950F5F1F4F04301F
:1008D000110509F0B5CFD8CF80E00E94E20181E098
:1008E0000E94E20182E00E94E20182E00E9427026F
:1008F00080E00E940E0149E450E063E080E00E9445
:100900002E01789480E00E94F4012FEF83ED90E3B4
:10091000215080409040E1F700C0000080E00E943C
:10092000060281E00E94F4012FEF83ED90E3215055
:1009300080409040E1F700C0000081E00E94060284
:1009400082E00E94F4012FEF83ED90E3215080407C
:100950009040E1F700C0000082E00E940602D2CF82
:04096000F894FFCF39
:100964000539003600330030003B003800350032D2
:10097400003A003700340031003738392F34353627
:0A098400783132332D4F303D2B0047
:00000001FF
