:100000000C942A000C9420010C9449010C94720168
:100010000C9447000C9447000C9447000C94470044
:100020000C9447000C9447000C9447000C94470034
:100030000C9447000C9447000C9447000C94470024
:100040000C9447000C9447000C9447000C94470014
:100050000C94470011241FBECFE5D8E0DEBFCDBF12
:1000600010E0A0E6B0E0ECE0FDE002C005900D92EB
:10007000A838B107D9F720E0A8E8B0E001C01D9288
:10008000A239B207E1F70E9425040C9484060C946F
:10009000000080918E0090918F00A0919000B0910F
:1000A0009100885C9109A109B10980938E00909319
:1000B0008F00A0939000B09391000895413091F08B
:1000C00018F0423029F10895E82FF0E0EE0FFF1FFD
:1000D000E059FF4F0190F081E02D80816095682309
:1000E0006083089590E0880F991FFC01E059FF4F4D
:1000F0000190F081E02D3081262F2095232320834D
:1001000088599F4FDC01ED91FC918081682BE8CFED
:10011000E82FF0E0EE0FFF1FE059FF4F0190F08154
:10012000E02DF3CF442319F0413079F00895E82F02
:10013000F0E0EE0FFF1FE859FF4F0190F081E02D36
:1001400080816095682360830895E82FF0E0EE0FCA
:10015000FF1FE859FF4F0190F081E02D8081682B4F
:10016000F2CFE82FF0E0EE0FFF1FE859FF4F0190AC
:10017000F081E02D8081682760830895E82FF0E00A
:10018000EE0FFF1FE05AFF4F0190F081E02D8081BC
:10019000682319F4FA011082089581E0FA0180833E
:1001A0000895813041F018F0823041F008958BB706
:1001B00080648BBF08958BB78068FBCF8BB780625C
:1001C000F8CF813041F018F0823041F008958BB7BC
:1001D0008F7B8BBF08958BB78F77FBCF8BB78F7DCE
:1001E000F8CF813079F018F08230D9F0089585B7D2
:1001F0008C7F85BF85B7682B65BF50938D0040937A
:100200008C00089585B7837F85BF85B794E0699F8B
:10021000B0011124682B65BF50938B0040938A0076
:100220000895633041F484B7806484BF509389009B
:100230004093880008956230C9F784B78F7BF5CF6B
:100240001F920F920FB60F9211242F933F934F934B
:100250005F936F937F938F939F93AF93BF93EF932E
:10026000FF93E0918C00F0918D00309709F0099593
:10027000FF91EF91BF91AF919F918F917F916F917E
:100280005F914F913F912F910F900FBE0F901F9054
:1002900018951F920F920FB60F9211242F933F9330
:1002A0004F935F936F937F938F939F93AF93BF937E
:1002B000EF93FF93E0918A00F0918B00309709F063
:1002C0000995FF91EF91BF91AF919F918F917F9190
:1002D0006F915F914F913F912F910F900FBE0F90B3
:1002E0001F9018951F920F920FB60F9211242F9303
:1002F0003F934F935F936F937F938F939F93AF93AE
:10030000BF93EF93FF93E0918800F09189003097BD
:1003100009F00995FF91EF91BF91AF919F918F9156
:100320007F916F915F914F913F912F910F900FBEF1
:100330000F901F901895813049F018F0823049F0E5
:10034000089542E064E082E00C945E0042E060E8E0
:10035000FACF42E068E083E0F7CF813049F018F04F
:10036000823049F0089541E064E082E00C9492000C
:1003700041E060E8FACF41E068E083E0F7CF813008
:1003800049F018F0823049F0089540E064E082E0DE
:100390000C94920040E060E8FACF40E068E083E02F
:1003A000F7CF813041F018F0823039F0089564E0E1
:1003B00082E00C94B10060E8FBCF68E083E0F9CF05
:1003C000813049F018F0823051F0089540E061E04A
:1003D00081E00C945E0040E060E483E0FACF40E00E
:1003E00064E0FBCFAB01813041F018F0823041F086
:1003F000089561E081E00C94BE0060E483E0FBCFEF
:1004000064E0FCCFCF93C82F42E060E180E00E941F
:100410005E0042E060E280E00E945E0042E060E454
:1004200080E00E945E0042E060E880E00E945E00A2
:10043000CC2321F0C13041F0CF91089542E064E037
:1004400081E0CF910C945E0042E062E0F9CF882316
:1004500019F0813031F0089541E064E081E00C94BE
:10046000920041E062E0FACF882319F0813031F048
:10047000089540E064E081E00C94920040E062E086
:10048000FACFCF938A30F0F4C82F482F417060E143
:1004900080E00E949200C1FB442740F960E280E0C6
:1004A0000E949200C2FB442740F960E480E00E9471
:1004B00092004C2F46954695469560E880E0CF9196
:1004C0000C949200CF910895CF93C82F40E062E042
:1004D00081E00E94920040E064E081E00E9492008E
:1004E000C4FB442740F960E180E00E949200C5FB14
:1004F000442740F960E280E00E949200C6FB442756
:1005000040F960E480E00E9492004C2F441F442791
:10051000441F60E880E00E94920040E068E081E0D3
:100520000E94920087EC90E00197F1F700C0000074
:1005300041E068E081E00E9492004C2F417060E150
:1005400080E00E949200C1FB442740F960E280E015
:100550000E949200C2FB442740F960E480E00E94C0
:100560009200C3FB442740F960E880E00E949200BB
:1005700040E068E081E00E94920087EC90E0019703
:10058000F1F700C0000041E068E081E0CF910C94F9
:100590009200CF93C82F41E062E081E00E94920078
:1005A00040E064E081E00E949200C4FB442740F9EF
:1005B00060E180E00E949200C5FB442740F960E2C0
:1005C00080E00E949200C6FB442740F960E480E08E
:1005D0000E9492004C2F441F4427441F60E880E093
:1005E0000E94920040E068E081E00E94920087EC67
:1005F00090E00197F1F700C0000041E068E081E081
:100600000E9492004C2F417060E180E00E949200B5
:10061000C1FB442740F960E280E00E949200C2FBE7
:10062000442740F960E480E00E949200C3FB442725
:1006300040F960E880E00E94920040E068E081E0DC
:100640000E94920087EC90E00197F1F700C0000053
:1006500041E068E081E0CF910C94920042E06EE0CE
:1006600081E00E945E0042E060EF80E00E945E0058
:1006700041E068E081E00E9492002FEF80E792E085
:10068000215080409040E1F700C0000040E060E170
:1006900080E00E94920041E060E280E00E949200CF
:1006A00040E060E480E00E94920040E060E880E08A
:1006B0000E94920040E068E081E00E94920087EC96
:1006C00090E00197F1F700C0000041E068E081E0B0
:1006D0000E9492008CE20E9464028FE99FE00197E1
:1006E000F1F700C000008FE00E9464028FE99FE0F4
:1006F0000197F1F700C0000081E00E9464028FE3DF
:100700009FE10197F1F700C0000086E00E946402BB
:100710008FE99FE00197F1F700C0000008950C9465
:10072000C902CF93DF93EC018991811103C0DF915E
:10073000CF9108950E94C902F7CF6068862B0C9470
:10074000640241E06FE083E00E945E0042E060EFFF
:1007500083E00E945E0041E060EF83E00C94920031
:100760006F927F928F929F92AF92BF92CF92DF92C1
:10077000EF92FF920F931F93CF93DF931F92CDB70A
:10078000DEB76C01FC011082F12CE12C90E1692EA6
:10079000712C88248394912C53010E2C01C0AA0C37
:1007A0000A94EAF740E06A2D83E00E94920010E08C
:1007B00000E0AE014F5F5F4FB401002E01C0660F35
:1007C0000A94EAF783E00E94BE008981811136C055
:1007D000FFEF22E587E0F15020408040E1F700C0C4
:1007E0000000F801EE0FFF1FEE0FFF1FE858FF4F4C
:1007F000EE0DFF1D8081F601808341E06A2D83E0CC
:100800000E949200F6018081811108C0FFEFEF1A6B
:10081000FF0A24E0E216F10409F0BECF0F90DF9149
:10082000CF911F910F91FF90EF90DF90CF90BF90ED
:10083000AF909F908F907F906F9008950F5F1F4FA4
:100840000430110509F0B5CFD8CF88EE93E0A0E0D1
:10085000B0E080938E0090938F00A0939000B093AF
:10086000910080E00E949B0181E00E949B0182E058
:100870000E949B0182E00E94E00180E00E94D10082
:1008800049E450E063E080E00E94F100C0E9D1E07B
:1008900080E00E94AD0160918E0070918F00809188
:1008A0009000909191000E9460054B015C0120E056
:1008B00030E04AE755E40E94EF056B017C0120E03F
:1008C00030E040E85FE30E942C0587FDA0C020E0F7
:1008D0003FEF4FE757E4C701B6010E94EA0518163B
:1008E0000CF08DC020E030E040E251E4C501B401DD
:1008F0000E94EF050E9431056115710509F079C06C
:1009000080E00E94BF0181E00E94AD0160918E00F5
:1009100070918F0080919000909191000E946005ED
:100920004B015C0120E030E04AE755E40E94EF050E
:100930006B017C0120E030E040E85FE30E942C0581
:1009400087FD76C020E03FEF4FE757E4C701B601CF
:100950000E94EA0518160CF063C020E030E040E287
:1009600051E4C501B4010E94EF050E9431056115F3
:10097000710509F04FC081E00E94BF0182E00E9432
:10098000AD0160918E0070918F00809190009091E8
:1009900091000E9460054B015C0120E030E04AE7D5
:1009A00055E40E94EF056B017C0120E030E040E857
:1009B0005FE30E942C0587FD4CC020E03FEF4FE72E
:1009C00057E4C701B6010E94EA0518160CF039C0B9
:1009D00020E030E040E251E4C501B4010E94EF059F
:1009E0000E9431056115710531F582E00E94BF0159
:1009F0004FCFCE010197F1F7615071097DCFC7014B
:100A0000B6010E943105CB010197F1F779CF61E082
:100A100070E0F9CFCE010197F1F761507109A7CFCE
:100A2000C701B6010E943105CB010197F1F7A3CFB1
:100A300061E070E0F9CFCE010197F1F761507109E3
:100A4000D1CFC701B6010E943105CB010197F1F763
:100A5000CCCF61E070E0F9CF0E949D0508F481E001
:100A600008950E94C90588F09F5798F0B92F9927DB
:100A7000B751B0F0E1F0660F771F881F991F1AF089
:100A8000BA95C9F714C0B13091F00E94E305B1E006
:100A900008950C94E305672F782F8827B85F39F005
:100AA000B93FCCF3869577956795B395D9F73EF422
:100AB00090958095709561957F4F8F4F9F4F0895CA
:100AC000E89409C097FB3EF49095809570956195E8
:100AD0007F4F8F4F9F4F9923A9F0F92F96E9BB279E
:100AE0009395F695879577956795B795F111F8CF1A
:100AF000FAF4BB0F11F460FF1BC06F5F7F4F8F4F85
:100B00009F4F16C0882311F096E911C0772321F07A
:100B10009EE8872F762F05C0662371F096E8862F12
:100B200070E060E02AF09A95660F771F881FDAF769
:100B3000880F9695879597F90895990F0008550F96
:100B4000AA0BE0E8FEEF16161706E807F907C0F053
:100B500012161306E407F50798F0621B730B840B5B
:100B6000950B39F40A2661F0232B242B252B21F435
:100B700008950A2609F4A140A6958FEF811D811DD5
:100B8000089557FD9058440F551F59F05F3F71F07D
:100B90004795880F97FB991F61F09F3F79F08795E4
:100BA0000895121613061406551FF2CF4695F1DF6D
:100BB00008C0161617061806991FF1CF86957105FD
:100BC000610508940895E894BB2766277727CB0131
:100BD00097F908950E949D0508F48FEF08950E94EB
:100BE00002060C9473060E94650638F00E946C069B
:100BF00020F0952311F00C945C060C9462061124ED
:100C00000C94E4050E94C10570F3959FC1F3950F04
:100C100050E0551F629FF001729FBB27F00DB11D80
:100C2000639FAA27F00DB11DAA1F649F6627B00D10
:100C3000A11D661F829F2227B00DA11D621F739FF9
:100C4000B00DA11D621F839FA00D611D221F749F07
:100C50003327A00D611D231F849F600D211D822F4E
:100C6000762F6A2F11249F5750409AF0F1F0882375
:100C70004AF0EE0FFF1FBB1F661F771F881F9150A2
:100C80005040A9F79E3F510580F00C945C060C94EF
:100C9000E4055F3FE4F3983ED4F386957795679536
:100CA000B795F795E7959F5FC1F7FE2B880F911DCC
:100CB0009695879597F9089597F99F6780E870E072
:100CC00060E008959FEF80EC089500240A941616C2
:100CD000170618060906089500240A94121613062A
:100CE000140605060895092E0394000C11F48823B8
:100CF00052F0BB0F40F4BF2B11F460FF04C06F5FD4
:0C0D00007F4F8F4F9F4F0895F894FFCF56
:100D0C0039003600330030003B003800350032002B
:100D1C003A003700340031003738392F3435367803
:080D2C003132332D4F303D2B15
:00000001FF
