:100000000C942A000C9447000C9447000C94470071
:100010000C9447000C9447000C9447000C94470044
:100020000C9447000C9447000C9447000C94470034
:100030000C9447000C9447000C9447000C94470024
:100040000C9447000C9447000C9447000C94470014
:100050000C94470011241FBECFE5D8E0DEBFCDBF12
:1000600010E0A0E6B0E0E8E2F9E002C005900D92F1
:10007000AA38B107D9F720E0AAE8B0E001C01D9284
:10008000A539B207E1F70E9408040C9492040C947D
:10009000000010928A00E1E9F0E0F0936100E09343
:1000A0006000ABE8B0E01C9211961C92119712967A
:1000B0001C92129713961C92108211821282138244
:1000C0000895CF93DF93809190008D3299F140F4A1
:1000D0008B32F9F08BE890E0DF91CF910C947403B0
:1000E0008F32C9F18837B1F781E990E00E94370477
:1000F000EC0183E990E00E9437044AE06BE870E08D
:100100009C01C29FC001C39F900DD29F900D1124EE
:100110000EC081E990E00E943704EC0183E990E091
:100120000E9437044AE06BE870E08C0F9D1F0E942C
:100130005504D0CF81E990E00E943704EC0183E9B7
:1001400090E00E9437044AE06BE870E09E01281BB3
:10015000390BC901ECCF81E990E00E943704EC0132
:1001600083E990E00E943704BC01CE010E940F0495
:10017000CB014AE06BE870E0DACF8FE890E00E94B4
:10018000930380918F008F3481F40E9411030E94A9
:1001900011030E9449002FEF81EE94E0215080402E
:1001A0009040E1F700C0000008958D3339F46DE010
:1001B00080E40E9480030E946100EBCF982F9B7F18
:1001C0009B3221F08D3211F0883791F40E94720336
:1001D00080918F00809390008091600090916100E9
:1001E0000296909361008093600010928A00D3CFB2
:1001F000882389F20E94720380918A00E091600056
:10020000F0916100E80FF11D90918F0090838F5F56
:1002100080938A00C0CF413091F018F0423029F12C
:100220000895E82FF0E0EE0FFF1FEE58FF4F01900A
:10023000F081E02D8081609568236083089590E0CF
:10024000880F991FFC01EE58FF4F0190F081E02DBF
:100250003081262F20952323208386599F4FDC0150
:10026000ED91FC918081682BE8CFE82FF0E0EE0F54
:10027000FF1FEE58FF4F0190F081E02DF3CF442394
:1002800019F0413079F00895E82FF0E0EE0FFF1FEC
:10029000E659FF4F0190F081E02D80816095682341
:1002A00060830895E82FF0E0EE0FFF1FE659FF4F3F
:1002B0000190F081E02D8081682BF2CFE82FF0E0F3
:1002C000EE0FFF1FE659FF4F0190F081E02D808176
:1002D000682760830895E82FF0E0EE0FFF1FEE59C6
:1002E000FF4F0190F081E02D8081682319F4FA011D
:1002F0001082089581E0FA0180830895813049F0E9
:1003000018F0823049F0089542E064E082E00C94F5
:100310000B0142E060E8FACF42E068E083E0F7CF0B
:10032000813049F018F0823049F0089541E064E0EE
:1003300082E00C943F0141E060E8FACF41E068E0E0
:1003400083E0F7CF813049F018F0823049F008950A
:1003500040E064E082E00C943F0140E060E8FACFC6
:1003600040E068E083E0F7CF813041F018F0823060
:1003700039F0089564E082E00C945E0160E8FBCF00
:1003800068E083E0F9CF813049F018F0823051F015
:10039000089540E061E081E00C940B0140E060E4EE
:1003A00083E0FACF40E064E0FBCFAB01813041F065
:1003B00018F0823041F0089561E081E00C946B0107
:1003C00060E483E0FBCF64E0FCCFCF93C82F42E032
:1003D00060E180E00E940B0142E060E280E00E9468
:1003E0000B0142E060E480E00E940B0142E060E823
:1003F00080E00E940B01CC2321F0C13041F0CF916D
:10040000089542E064E081E0CF910C940B0142E05A
:1004100062E0F9CF882319F0813031F0089541E08E
:1004200064E081E00C943F0141E062E0FACF882370
:1004300019F0813031F0089540E064E081E00C94DF
:100440003F0140E062E0FACFCF938A30F0F4C82F4A
:10045000482F417060E180E00E943F01C1FB4427CA
:1004600040F960E280E00E943F01C2FB442740F96E
:1004700060E480E00E943F014C2F469546954695EA
:1004800060E880E0CF910C943F01CF910895CF9325
:10049000C82F40E062E081E00E943F0140E064E05C
:1004A00081E00E943F01C4FB442740F960E180E005
:1004B0000E943F01C5FB442740F960E280E00E94B2
:1004C0003F01C6FB442740F960E480E00E943F0101
:1004D0004C2F441F4427441F60E880E00E943F01E6
:1004E00040E068E081E00E943F0187EC90E00197E6
:1004F000F1F700C0000041E068E081E00E943F01A8
:100500004C2F417060E180E00E943F01C1FB442715
:1005100040F960E280E00E943F01C2FB442740F9BD
:1005200060E480E00E943F01C3FB442740F960E89B
:1005300080E00E943F0140E068E081E00E943F01CE
:1005400087EC90E00197F1F700C0000041E068E01F
:1005500081E0CF910C943F01CF93C82F41E062E03E
:1005600081E00E943F0140E064E081E00E943F01A1
:10057000C4FB442740F960E180E00E943F01C5FBD5
:10058000442740F960E280E00E943F01C6FB442717
:1005900040F960E480E00E943F014C2F441F442753
:1005A000441F60E880E00E943F0140E068E081E095
:1005B0000E943F0187EC90E00197F1F700C0000036
:1005C00041E068E081E00E943F014C2F417060E112
:1005D00080E00E943F01C1FB442740F960E280E0D7
:1005E0000E943F01C2FB442740F960E480E00E9482
:1005F0003F01C3FB442740F960E880E00E943F01CF
:1006000040E068E081E00E943F0187EC90E00197C4
:10061000F1F700C0000041E068E081E0CF910C9468
:100620003F0142E06EE081E00E940B0142E060EF9A
:1006300080E00E940B0141E068E081E00E943F0100
:100640002FEF80E792E0215080409040E1F700C01A
:10065000000040E060E180E00E943F0141E060E294
:1006600080E00E943F0140E060E480E00E943F01A2
:1006700040E060E880E00E943F0140E068E081E007
:100680000E943F0187EC90E00197F1F700C0000065
:1006900041E068E081E00E943F018CE20E94470255
:1006A0008FE99FE00197F1F700C000008FE00E9402
:1006B00047028FE99FE00197F1F700C0000081E059
:1006C0000E9447028FE39FE10197F1F700C000000D
:1006D00086E00E9447028FE99FE00197F1F700C092
:1006E000000008950C94AC02CF93DF93EC01899144
:1006F000811103C0DF91CF9108950E94AC02F7CF22
:100700006068862B0C94470241E06FE083E00E9412
:100710000B0142E060EF83E00E940B0141E060EFDB
:1007200083E00C943F016F927F928F929F92AF92E1
:10073000BF92CF92DF92EF92FF920F931F93CF93CE
:10074000DF931F92CDB7DEB76C01FC011082F12C54
:10075000E12C90E1692E712C88248394912C530113
:100760000E2C01C0AA0C0A94EAF740E06A2D83E03F
:100770000E943F0110E000E0AE014F5F5F4FB40107
:10078000002E01C0660F0A94EAF783E00E946B0115
:100790008981811136C0FFEF22E587E0F1502040CA
:1007A0008040E1F700C00000F801EE0FFF1FEE0FE0
:1007B000FF1FE658FF4FEE0DFF1D8081F60180837D
:1007C00041E06A2D83E00E943F01F60180818111A2
:1007D00008C0FFEFEF1AFF0A24E0E216F10409F067
:1007E000BECF0F90DF91CF911F910F91FF90EF90AF
:1007F000DF90CF90BF90AF909F908F907F906F9041
:1008000008950F5F1F4F0430110509F0B5CFD8CF01
:100810000E9484030E9411030E94BD00FDCF97FB3C
:10082000072E16F4009407D077FD09D00E94230408
:1008300007FC05D03EF4909581959F4F08957095E3
:1008400061957F4F0895AA1BBB1B51E107C0AA1FEA
:10085000BB1FA617B70710F0A61BB70B881F991F61
:100860005A95A9F780959095BC01CD010895FC019A
:1008700088279927E89421912032E9F3293010F054
:100880002E30C8F32B3241F02D3239F4689404C075
:100890000E946004820F911D219120532A30C0F3E1
:1008A0001EF4909581959F4F0895BB274A3031F4EF
:1008B000992322F4BDE2909581959F4F0C94690491
:1008C0007AE0979F902D879F802D910D1124089598
:1008D000BB27FB015527AA27880F991FAA1FA4171A
:1008E00010F0A41B83955051B9F7A05DAA3308F00E
:1008F000A95DA193009779F7B111B1931192CB0142
:100900000C948204DC01FC01672F71917723E1F7DD
:10091000329704C07C916D9370836291AE17BF07CC
:08092000C8F30895F894FFCF1D
:10092800910039003600330030003B0038003500B4
:1009380032003A003700340031003738392F343567
:0A09480036783132332D4F303D2B4D
:00000001FF
