:100000000C942A000C9447000C9447000C94470071
:100010000C9447000C9447000C9447000C94470044
:100020000C9447000C9447000C9447000C94470034
:100030000C9447000C9447000C9447000C94470024
:100040000C9447000C9447000C9447000C94470014
:100050000C94470011241FBECFE5D8E0DEBFCDBF12
:1000600010E0A0E6B0E0E4E8F5E002C005900D92F3
:10007000A837B107D9F720E0A8E7B0E001C01D928A
:10008000AD37B207E1F70E94A6020C94C0020C94AF
:1000900000006AE770E080E00E9434026BE770E0E5
:1000A00081E00E9434026CE770E082E00C9434023C
:1000B0000E94490080917A00811107C080917B00E5
:1000C000811103C080917C00811108950E94490034
:1000D00080E00E946902809179000E9483028FE390
:1000E0009CE90197F1F700C0000080E00E947602D1
:1000F00081E00E946902809178000E9483028FE370
:100100009CE90197F1F700C0000081E00E947602AF
:10011000D1CF0E94490080917A00813009F065C0FA
:1001200082E08093790080E00E94EF01C3E380E0E9
:100130000E94690283E00E9483028FE39CE9019799
:10014000F1F700C0000080E00E94760281E00E948A
:10015000690280E00E9483028FE39CE90197F1F736
:1001600000C0000081E00E947602C15001F7D9E092
:10017000D09378008091780087FF0AC08091790041
:1001800081112FC00E9401020E9458000E94890024
:10019000C3E380E00E946902809179000E9483029B
:1001A0008FE39CE90197F1F700C0000080E00E9416
:1001B000760281E00E946902809178000E948302A9
:1001C0008FE39CE90197F1F700C0000081E00E94F5
:1001D0007602C150F1F680917800815080937800CA
:1001E000C9CF815080937900C3CF80917B0081304B
:1001F000E9F585E08093790081E00E94EF01C0E09D
:10020000D3E380E00E946902809179000E9483021A
:100210008FE39CE90197F1F700C0000080E00E94A5
:10022000760281E00E9469028C2F0E9483028FE394
:100230009CE90197F1F700C0000081E00E9476027E
:10024000D150F9F6CF5FCA30D9F680917900893064
:1002500049F481E00E9401028091780081508093EE
:10026000780092CF8F5F80937900C9CF80917C0016
:10027000813009F04ECF1092790082E00E94EF01A8
:10028000C0E0D3E380E00E946902809179000E947F
:1002900083028FE39CE90197F1F700C0000080E042
:1002A0000E94760281E00E9469028C2F0E948302E4
:1002B0008FE39CE90197F1F700C0000081E00E9404
:1002C0007602D150F9F6CF5FCA30D9F68091790025
:1002D000833049F482E00E9401021092780084E0A9
:1002E0008093790051CF8F5F80937900C9CF4130DF
:1002F00091F018F04230D9F00895E82FF0E0EE0FB9
:10030000FF1FE059FF4F0190F081E02D8081609543
:10031000682360830895E82FF0E0EE0FFF1FE8598F
:10032000FF4F0190F081E02D8081682BF2CFE82F04
:10033000F0E0EE0FFF1FE059FF4FF3CF442319F019
:10034000413079F00895E82FF0E0EE0FFF1FE859F3
:10035000FF4F0190F081E02D8081609568236083DC
:100360000895E82FF0E0EE0FFF1FE859FF4F0190CE
:10037000F081E02D8081682BF2CFE82FF0E0EE0FC6
:10038000FF1FE859FF4F0190F081E02D8081682721
:1003900060830895E82FF0E0EE0FFF1FE05AFF4F53
:1003A0000190F081E02D8081682319F4FA01108218
:1003B000089581E0FA0180830895813049F018F0B2
:1003C000823049F0089542E064E082E00C947701C5
:1003D00042E060E8FACF42E068E083E0F7CF8130A6
:1003E00049F018F0823049F0089541E064E082E07D
:1003F0000C949E0141E060E8FACF41E068E083E0C0
:10040000F7CF813049F018F0823049F0089540E08C
:1004100064E082E00C949E0140E060E8FACF40E0A6
:1004200068E083E0F7CF813041F018F0823039F096
:10043000089564E082E00C94BD0160E8FBCF68E0C1
:1004400083E0F9CF813049F018F0823051F00895FF
:1004500040E061E081E00C94770140E060E483E0FB
:10046000FACF40E064E0FBCFAB01813041F018F0FF
:10047000823041F0089561E081E00C94CA0160E4AB
:1004800083E0FBCF64E0FCCFCF93C82F42E060E174
:1004900080E00E94770142E060E280E00E94770104
:1004A00042E060E480E00E94770142E060E880E0A2
:1004B0000E947701CC2321F0C13041F0CF91089503
:1004C00042E064E081E0CF910C94770142E062E089
:1004D000F9CF882319F0813031F0089541E064E0CC
:1004E00081E00C949E0141E062E0FACF882319F08C
:1004F000813031F0089540E064E081E00C949E0189
:1005000040E062E0FACFCF938A30F0F4C82F482F52
:10051000417060E180E00E949E01C1FB442740F9E8
:1005200060E280E00E949E01C2FB442740F960E443
:1005300080E00E949E014C2F46954695469560E8C6
:1005400080E0CF910C949E01CF91089580E00E94AD
:10055000440281E00E94440280E00E94DD0181E0CB
:100560000E94DD0182E00E94DD0180E00E94220203
:1005700081E00E94220282E00E9422020E94890001
:04058000F894FFCF1D
:1005840039003600330030003B00380035003200BB
:080594003A0037003400310089
:00000001FF
