:100000000C942A000C9447000C9447000C94470071
:100010000C9447000C9447000C9447000C94470044
:100020000C9447000C9447000C9447000C94470034
:100030000C9447000C9447000C9447000C94470024
:100040000C9447000C9447000C9447000C94470014
:100050000C94470011241FBECFE5D8E0DEBFCDBF12
:1000600010E0A0E6B0E0E4EDF4E002C005900D92EF
:10007000A837B107D9F720E0A8E7B0E001C01D928A
:10008000AD37B207E1F70E944E020C9468020C945F
:1000900000006AE770E080E00E94DC016BE770E03E
:1000A00081E00E94DC016CE770E082E00C94DC01EE
:1000B0000E94490080917A00811107C080917B00E5
:1000C000811103C080917C00811108950E94490034
:1000D00080E00E941102809179000E942B028FE340
:1000E0009CE90197F1F700C0000080E00E941E0229
:1000F00081E00E941102809178000E942B028FE320
:100100009CE90197F1F700C0000081E00E941E0207
:10011000D1CF0E94490080917A008130D1F3809143
:100120007B00813009F044C085E08093790081E054
:100130000E94970110927800809178008A305CF0DC
:1001400080917900893081F581E00E94A9010E94A7
:1001500058000E948900C3E380E00E941102809150
:1001600079000E942B028FE39CE90197F1F700C010
:10017000000080E00E941E0281E00E941102809136
:1001800078000E942B028FE39CE90197F1F700C0F1
:10019000000081E00E941E02C150F1F680917800BB
:1001A0008F5F80937800C8CF8F5F80937900C2CF34
:1001B00080917C00813009F0ACCF1092790082E010
:1001C0000E9497018091790084303CF0843009F0DE
:1001D000A0CF82E00E94A9019CCF1092780080916C
:1001E00078008A3034F0809179008F5F80937900B5
:1001F000E9CF80E00E941102809178000E942B02DA
:100200008FE39CE90197F1F700C0000080E00E94B5
:100210001E0281E00E941102809179000E942B024F
:100220008FE39CE90197F1F700C0000081E00E9494
:100230001E02809178008F5F80937800D0CF41308C
:1002400091F018F04230D9F00895E82FF0E0EE0F69
:10025000FF1FE059FF4F0190F081E02D80816095F4
:10026000682360830895E82FF0E0EE0FFF1FE85940
:10027000FF4F0190F081E02D8081682BF2CFE82FB5
:10028000F0E0EE0FFF1FE059FF4FF3CF442319F0CA
:10029000413079F00895E82FF0E0EE0FFF1FE859A4
:1002A000FF4F0190F081E02D80816095682360838D
:1002B0000895E82FF0E0EE0FFF1FE859FF4F01907F
:1002C000F081E02D8081682BF2CFE82FF0E0EE0F77
:1002D000FF1FE859FF4F0190F081E02D80816827D2
:1002E00060830895E82FF0E0EE0FFF1FE05AFF4F04
:1002F0000190F081E02D8081682319F4FA011082C9
:10030000089581E0FA0180830895813049F018F062
:10031000823049F0089542E064E082E00C941F01CD
:1003200042E060E8FACF42E068E083E0F7CF813056
:1003300049F018F0823049F0089541E064E082E02D
:100340000C94460141E060E8FACF41E068E083E0C8
:10035000F7CF813049F018F0823049F0089540E03D
:1003600064E082E00C94460140E060E8FACF40E0AF
:1003700068E083E0F7CF813041F018F0823039F047
:10038000089564E082E00C94650160E8FBCF68E0CA
:1003900083E0F9CF813049F018F0823051F00895B0
:1003A00040E061E081E00C941F0140E060E483E004
:1003B000FACF40E064E0FBCFAB01813041F018F0B0
:1003C000823041F0089561E081E00C94720160E4B4
:1003D00083E0FBCF64E0FCCFCF93C82F42E060E125
:1003E00080E00E941F0142E060E280E00E941F0165
:1003F00042E060E480E00E941F0142E060E880E0AB
:100400000E941F01CC2321F0C13041F0CF9108950B
:1004100042E064E081E0CF910C941F0142E062E091
:10042000F9CF882319F0813031F0089541E064E07C
:1004300081E00C94460141E062E0FACF882319F094
:10044000813031F0089540E064E081E00C94460191
:1004500040E062E0FACFCF938A30F0F4C82F482F03
:10046000417060E180E00E944601C1FB442740F9F1
:1004700060E280E00E944601C2FB442740F960E44C
:1004800080E00E9446014C2F46954695469560E8CF
:1004900080E0CF910C944601CF91089580E00E94B6
:1004A000EC0181E00E94EC0180E00E94850181E086
:1004B0000E94850182E00E94850180E00E94CA01BD
:1004C00081E00E94CA0182E00E94CA010E94890064
:0404D000F894FFCFCE
:1004D40039003600330030003B003800350032006C
:0804E4003A003700340031003A
:00000001FF
