:100000000C942A000C9447000C9447000C94470071
:100010000C9447000C9447000C9447000C94470044
:100020000C9447000C9447000C9447000C94470034
:100030000C9447000C9447000C9447000C94470024
:100040000C9447000C9447000C9447000C94470014
:100050000C94470011241FBECFE5D8E0DEBFCDBF12
:1000600010E0A0E6B0E0EAEAF5E002C005900D92EB
:10007000A837B107D9F720E0A8E7B0E001C01D928A
:10008000AD37B207E1F70E94B9020C94D3020C9489
:1000900000006AE770E080E00E9447026BE770E0D2
:1000A00081E00E9447026CE770E082E00C94470216
:1000B0000E94490080917A00811107C080917B00E5
:1000C000811103C080917C00811108950E94490034
:1000D00080E00E947C02809179000E9496028FE36A
:1000E0009CE90197F1F700C0000080E00E948902BE
:1000F00081E00E947C02809178000E9496028FE34A
:100100009CE90197F1F700C0000081E00E9489029C
:10011000D1CF0E94490080917A00813009F065C0FA
:1001200082E08093790080E00E940202C3E380E0D5
:100130000E947C0283E00E9496028FE39CE9019773
:10014000F1F700C0000080E00E94890281E00E9477
:100150007C0280E00E9496028FE39CE90197F1F710
:1001600000C0000081E00E948902C15001F7D9E07F
:10017000D09378008091780087FF0AC08091790041
:1001800081112FC00E9414020E9458000E94890011
:10019000C3E380E00E947C02809179000E94960275
:1001A0008FE39CE90197F1F700C0000080E00E9416
:1001B000890281E00E947C02809178000E94960270
:1001C0008FE39CE90197F1F700C0000081E00E94F5
:1001D0008902C150F1F680917800815080937800B7
:1001E000C9CF815080937900C3CF80917B0081304B
:1001F00009F046C085E08093790081E00E94020208
:1002000010927800809178008A306CF080917900AB
:10021000893091F581E00E9414028091780081502C
:1002200080937800B1CFC3E380E00E947C0280918C
:1002300079000E9496028FE39CE90197F1F700C0D4
:10024000000080E00E94890281E00E947C0280918F
:1002500078000E9496028FE39CE90197F1F700C0B5
:10026000000081E00E948902C150F1F6809178007F
:100270008F5F80937800C6CF8F5F80937900C0CF67
:1002800080917C00813009F044CF1092790082E0A7
:100290000E94020210927800809178008A306CF0FF
:1002A00080917900833091F582E00E9414021092CF
:1002B000780084E08093790067CFC2E380E00E94F9
:1002C0007C02809179000E9496028FE39CE901975D
:1002D000F1F700C0000080E00E94890281E00E94E6
:1002E0007C02809178000E9496028FE39CE901973E
:1002F000F1F700C0000081E00E948902C150F1F6D0
:10030000809178008F5F80937800C6CF8F5F809355
:100310007900C0CF413091F018F04230D9F0089503
:10032000E82FF0E0EE0FFF1FE059FF4F0190F08142
:10033000E02D80816095682360830895E82FF0E0C8
:10034000EE0FFF1FE859FF4F0190F081E02D8081F3
:10035000682BF2CFE82FF0E0EE0FFF1FE059FF4FC0
:10036000F3CF442319F0413079F00895E82FF0E0FD
:10037000EE0FFF1FE859FF4F0190F081E02D8081C3
:100380006095682360830895E82FF0E0EE0FFF1F6B
:10039000E859FF4F0190F081E02D8081682BF2CF6A
:1003A000E82FF0E0EE0FFF1FE859FF4F0190F081BA
:1003B000E02D8081682760830895E82FF0E0EE0F3C
:1003C000FF1FE05AFF4F0190F081E02D80816823EC
:1003D00019F4FA011082089581E0FA0180830895EA
:1003E000813049F018F0823049F0089542E064E02D
:1003F00082E00C948A0142E060E8FACF42E068E0D3
:1004000083E0F7CF813049F018F0823049F0089549
:1004100041E064E082E00C94B10141E060E8FACF91
:1004200041E068E083E0F7CF813049F018F0823096
:1004300049F0089540E064E082E00C94B10140E0AE
:1004400060E8FACF40E068E083E0F7CF813041F028
:1004500018F0823039F0089564E082E00C94D00105
:1004600060E8FBCF68E083E0F9CF813049F018F015
:10047000823051F0089540E061E081E00C948A01FF
:1004800040E060E483E0FACF40E064E0FBCFAB0102
:10049000813041F018F0823041F0089561E081E050
:1004A0000C94DD0160E483E0FBCF64E0FCCFCF93EC
:1004B000C82F42E060E180E00E948A0142E060E2F1
:1004C00080E00E948A0142E060E480E00E948A01AC
:1004D00042E060E880E00E948A01CC2321F0C13034
:1004E00041F0CF91089542E064E081E0CF910C9417
:1004F0008A0142E062E0F9CF882319F0813031F0BF
:10050000089541E064E081E00C94B10141E062E0D3
:10051000FACF882319F0813031F0089540E064E08B
:1005200081E00C94B10140E062E0FACFCF938A30D1
:10053000F0F4C82F482F417060E180E00E94B101C3
:10054000C1FB442740F960E280E00E94B101C2FB98
:10055000442740F960E480E00E94B1014C2F4695A9
:100560004695469560E880E0CF910C94B101CF911B
:10057000089580E00E94570281E00E94570280E0C7
:100580000E94F00181E00E94F00182E00E94F001EF
:1005900080E00E94350281E00E94350282E00E94E4
:0A05A00035020E948900F894FFCF95
:1005AA0039003600330030003B0038003500320095
:0805BA003A0037003400310063
:00000001FF
